{
  "_format": "hh-sol-artifact-1",
  "contractName": "PaymentContract",
  "sourceName": "contracts/paymentContract.sol",
  "abi": [
    {
      "inputs": [],
      "stateMutability": "nonpayable",
      "type": "constructor"
    },
    {
      "inputs": [],
      "name": "amount",
      "outputs": [
        {
          "internalType": "uint256",
          "name": "",
          "type": "uint256"
        }
      ],
      "stateMutability": "view",
      "type": "function"
    },
    {
      "inputs": [],
      "name": "date",
      "outputs": [
        {
          "internalType": "uint256",
          "name": "",
          "type": "uint256"
        }
      ],
      "stateMutability": "view",
      "type": "function"
    },
    {
      "inputs": [
        {
          "internalType": "uint256",
          "name": "_amount",
          "type": "uint256"
        },
        {
          "internalType": "uint256",
          "name": "_paymentId",
          "type": "uint256"
        },
        {
          "internalType": "uint256",
          "name": "_date",
          "type": "uint256"
        }
      ],
      "name": "makePayment",
      "outputs": [],
      "stateMutability": "payable",
      "type": "function"
    },
    {
      "inputs": [],
      "name": "owner",
      "outputs": [
        {
          "internalType": "address",
          "name": "",
          "type": "address"
        }
      ],
      "stateMutability": "view",
      "type": "function"
    },
    {
      "inputs": [],
      "name": "paymentId",
      "outputs": [
        {
          "internalType": "uint256",
          "name": "",
          "type": "uint256"
        }
      ],
      "stateMutability": "view",
      "type": "function"
    },
    {
      "inputs": [],
      "name": "withdrawBalance",
      "outputs": [],
      "stateMutability": "nonpayable",
      "type": "function"
    }
  ],
  "bytecode": "0x608060405234801561001057600080fd5b50336000806101000a81548173ffffffffffffffffffffffffffffffffffffffff021916908373ffffffffffffffffffffffffffffffffffffffff160217905550600060018190555060006002819055506000600381905550610541806100786000396000f3fe6080604052600436106100555760003560e01c806325bd46391461005a578063323046b1146100855780635fd8c710146100b05780638da5cb5b146100c7578063aa8c217c146100f2578063b4beb5f61461011d575b600080fd5b34801561006657600080fd5b5061006f610139565b60405161007c91906102db565b60405180910390f35b34801561009157600080fd5b5061009a61013f565b6040516100a791906102db565b60405180910390f35b3480156100bc57600080fd5b506100c5610145565b005b3480156100d357600080fd5b506100dc61023c565b6040516100e99190610337565b60405180910390f35b3480156100fe57600080fd5b50610107610260565b60405161011491906102db565b60405180910390f35b61013760048036038101906101329190610383565b610266565b005b60025481565b60035481565b60008054906101000a900473ffffffffffffffffffffffffffffffffffffffff1673ffffffffffffffffffffffffffffffffffffffff163373ffffffffffffffffffffffffffffffffffffffff16146101d3576040517f08c379a00000000000000000000000000000000000000000000000000000000081526004016101ca90610459565b60405180910390fd5b60008054906101000a900473ffffffffffffffffffffffffffffffffffffffff1673ffffffffffffffffffffffffffffffffffffffff166108fc479081150290604051600060405180830381858888f19350505050158015610239573d6000803e3d6000fd5b50565b60008054906101000a900473ffffffffffffffffffffffffffffffffffffffff1681565b60015481565b8234146102a8576040517f08c379a000000000000000000000000000000000000000000000000000000000815260040161029f906104eb565b60405180910390fd5b826001819055508160028190555080600381905550505050565b6000819050919050565b6102d5816102c2565b82525050565b60006020820190506102f060008301846102cc565b92915050565b600073ffffffffffffffffffffffffffffffffffffffff82169050919050565b6000610321826102f6565b9050919050565b61033181610316565b82525050565b600060208201905061034c6000830184610328565b92915050565b600080fd5b610360816102c2565b811461036b57600080fd5b50565b60008135905061037d81610357565b92915050565b60008060006060848603121561039c5761039b610352565b5b60006103aa8682870161036e565b93505060206103bb8682870161036e565b92505060406103cc8682870161036e565b9150509250925092565b600082825260208201905092915050565b7f4f6e6c7920746865206f776e65722063616e20706572666f726d20746869732060008201527f616374696f6e0000000000000000000000000000000000000000000000000000602082015250565b60006104436026836103d6565b915061044e826103e7565b604082019050919050565b6000602082019050818103600083015261047281610436565b9050919050565b7f53656e742076616c7565206d757374206d61746368207468652073706563696660008201527f69656420616d6f756e7400000000000000000000000000000000000000000000602082015250565b60006104d5602a836103d6565b91506104e082610479565b604082019050919050565b60006020820190508181036000830152610504816104c8565b905091905056fea2646970667358221220fdcf386697b23809682eef889a90ca6d17f9fba151e66f63224b732ad02165c164736f6c63430008130033",
  "linkReferences": {},
  "deployedLinkReferences": {}
}